:100000000C9434000C9451000C9451000C948C0D01
:100010000C9451000C94E40C0C9451000C9451007D
:100020000C9451000C9451000C9451000C9451000C
:100030000C9451000C9451000C9451000C945100FC
:100040000C94FF0D0C9451000C9451000C94510031
:100050000C9451000C9451000C9451000C945100DC
:100060000C9451000C94510011241FBECFEFD8E026
:10007000DEBFCDBF11E0A0E0B1E0E6E6F3E202C0F2
:1000800005900D92A23EB107D9F722E0A2EEB1E0B1
:1000900001C01D92A83AB207E1F70E947E060C94B7
:1000A000B1110C94000097B121E030E0082E02C09D
:1000B000220F331F0A94E2F72095922397B998B143
:1000C000292328B98F70806480937C00662359F0BF
:1000D000EAE7F0E0808188608083EAE7F0E08081F1
:1000E000876980830895EAE7F0E08081877F8083D5
:1000F000F4CFEAE7F0E0808186FDFDCFEAE7F0E0AB
:10010000808180658083808186FDFDCF809178002D
:10011000909179000895EAE7F0E0808186FDFDCFB7
:10012000EAE7F0E0808180648083808186FDFDCFF6
:10013000809178009091790096958795969587950E
:10014000089597B121E030E0082E02C0220F331F3E
:100150000A94E2F72095922397B998B1292328B9F8
:10016000EAE7F0E0908196FDFDCFECE7F0E09081CA
:10017000907F908390818F70892B80830895109257
:10018000B9008CE08093B800089594EA9093BC0085
:10019000ECEBF0E090819923ECF79091B900987F17
:1001A000983011F09031A9F48093BB0084E88093DB
:1001B000BC00ECEBF0E080818823ECF79091B90073
:1001C000987F983141F081E0903409F0089580E003
:1001D000089581E0089580E0F9CFCF93DF93ECEBB1
:1001E000F0E024EAA9EBB0E0CBEBD0E034E844E95E
:1001F000208390819923ECF79C91987F983011F09F
:100200009031B1F78883308390819923ECF79C91EA
:10021000987F903229F0983519F0DF91CF910895A9
:100220004083908194FDFDCFE3CF0E94C5000895E7
:1002300084E98093BC00ECEBF0E0808184FDFDCF8D
:1002400008958093BB0084E88093BC00ECEBF0E061
:1002500080818823ECF79091B900987F81E09832F3
:1002600009F0089580E0FDCF84EC8093BC00ECEBB6
:10027000F0E080818823ECF78091BB00089584E84A
:100280008093BC00ECEBF0E080818823ECF7809158
:10029000BB000895282F392FCB01880F991F680FB5
:1002A000791F229A85B18B7F95B194604FB7F894EE
:1002B00061157105C1F0620F731FF9012F5F3F4F88
:1002C0005081E8E095B9000000C057FF85B9550F8F
:1002D000000000C000C000C085B900C0EA9591F7D9
:1002E0006217730751F74FBF8FEA94E00197F1F758
:1002F00000C000000895282F392FCB01880F991FC7
:10030000680F791F84B1842B84B995B1842F8095AF
:10031000892395B1492B9FB7F89461157105C1F0F8
:10032000620F731FF9012F5F3F4F5081E8E045B91D
:10033000000000C057FF85B9550F000000C000C085
:1003400000C085B900C0EA9591F76217730751F7AD
:100350009FBF8FEA94E00197F1F700C00000089575
:10036000282F392F660F771F660F771F229A85B1C6
:100370008B7F95B194604FB7F89461157105C1F00A
:10038000620F731FF9012F5F3F4F5081E8E095B96D
:10039000000000C057FF85B9550F000000C000C025
:1003A00000C085B900C0EA9591F76217730751F74D
:1003B0004FBF8FEA94E00197F1F700C00000089565
:1003C000282F392F862F972F229A45B14B7F55B171
:1003D00054606FB7F8940097C1F0820F931FF90132
:1003E0002F5F3F4F7081E8E055B9000000C077FFF4
:1003F00045B9770F000000C000C000C045B900C07B
:10040000EA9591F78217930751F76FBF0895282F48
:10041000392F862F972F54B1542B54B965B1542FCF
:100420005095562365B1462BAFB7F8940097C9F0A5
:10043000B901680F791FF9012F5F3F4F808198E064
:1004400045B9000000C087FF55B9880F000000C003
:1004500000C000C055B900C09A9591F762177307A4
:1004600051F7AFBF089523EA24BD92E095BD17BCB4
:1004700018BCEEE6F0E08081816080832093B000BC
:100480009093B1001092B3001092B400E1E8F0E054
:100490008081826080830895E8E6F0E08081856055
:1004A0008083EDE6F0E0808184698083EBE6F0E014
:1004B000808186618083089580ED0E94C5008CE66E
:1004C0000E94210180E00E9421010E94180180ED1C
:1004D0000E94C5008BE10E94210188E00E94210159
:1004E0000E94180180ED0E94C5008CE10E9421014C
:1004F00088E00E9421010E94180108950F931F9324
:10050000CF93DF9380ED0E94C5008BE30E94210111
:1005100081ED0E941501CAE5D2E008E612E00E94D2
:1005200034018993C017D107D1F70E943F010E947F
:100530001801EAE5F2E080854185582F5093FC01CF
:100540004093FB0182852385382F309385022093C9
:1005500084029485858590932B0280932A02609172
:10056000540270915502603D774029F0DF91CF91A0
:100570001F910F910895EEE2F2E060817181461BB8
:10058000570B5093FC014093FB0142815381241B84
:10059000350B309385022093840224813581821BA0
:1005A000930B90932B0280932A02E0CFCF92DF929D
:1005B000EF92FF920F931F93CF93DF9300D000D061
:1005C00000D0CDB7DEB720918602309187024091EE
:1005D0008802509189026091460270914702809191
:1005E0004802909149020E94730F062F172F8E83A5
:1005F0009D83209110013091110140911201509181
:10060000130169837A838B839C8369817A818B81CF
:100610009C810E944411209198023091990240914E
:100620009A0250919B0269837A838B839C836981B0
:100630007A818B819C810E94740FC62ED72EE82E62
:10064000F92E20E030E046E153E469837A838B831E
:100650009C8369817A818B819C810E943F1118164D
:100660000CF050C280E090E0A6E1B3E480939802E1
:1006700090939902A0939A02B0939B022091140147
:1006800030911501409116015091170109831A8389
:100690008E818B838D818C8369817A818B819C8112
:1006A0000E944411209198023091990240919A023F
:1006B00050919B0269837A838B839C8369817A81C1
:1006C0008B819C810E94740FC62ED72EE82EF92EA6
:1006D0002091F5013091F6014091F7015091F80118
:1006E00009831A838E818B838D818C8369817A81C2
:1006F0008B819C810E94730F20910C0130910D0120
:1007000040910E0150910F0169837A838B839C8302
:1007100069817A818B819C810E944411262F372F19
:10072000482F592FC982DA82EB82FC8269817A8153
:100730008B819C810E94740FC62ED72EE82EF92E35
:1007400020E030E046E153E469837A838B839C8325
:1007500069817A818B819C810E943F1118160CF06F
:10076000FBC180E090E0A6E1B3E48093ED019093BB
:10077000EE01A093EF01B093F001802F912FAE8195
:10078000BD818093F5019093F601A093F701B0939A
:10079000F80120918A0230918B0240918C02509195
:1007A0008D0260911602709117028091180290914B
:1007B00019020E94730F062F172F8E839D8320919D
:1007C00004013091050140910601509107016983B0
:1007D0007A838B839C8369817A818B819C810E943F
:1007E0004411209156023091570240915802509185
:1007F000590269837A838B839C8369817A818B8197
:100800009C810E94740FC62ED72EE82EF92E20E070
:1008100030E046E153E469837A838B839C8369816A
:100820007A818B819C810E943F1118160CF0BEC109
:1008300080E090E0A6E1B3E48093560290935702E3
:10084000A0935802B09359022091080130910901F8
:1008500040910A0150910B0109831A838E818B8389
:100860008D818C8369817A818B819C810E94441166
:1008700020915602309157024091580250915902EE
:1008800069837A838B839C8369817A818B819C8144
:100890000E94740FC62ED72EE82EF92E20918E02BC
:1008A00030918F02409190025091910209831A83F6
:1008B0008E818B838D818C8369817A818B819C81F0
:1008C0000E94730F209100013091010140910201BB
:1008D0005091030169837A838B839C8369817A8138
:1008E0008B819C810E944411262F372F482F592F2E
:1008F000C982DA82EB82FC8269817A818B819C8158
:100900000E94740FC62ED72EE82EF92E20E030E07C
:1009100046E153E469837A838B839C8369817A817E
:100920008B819C810E943F1118160CF069C180E0F8
:1009300090E0A6E1B3E48093720290937302A093D7
:100940007402B0937502802F912FAE81BD81809388
:100950008E0290938F02A0939002B0939102209107
:100960007E0230917F02409180025091810260911D
:1009700038027091390280913A0290913B020E94B4
:10098000730F062F172F8E839D83862F912FAE8195
:10099000BD818093940290939502A0939602B093A8
:1009A000970222E539E44DE959E309831A83AB83C1
:1009B000BC8369817A818B819C810E944411209142
:1009C000A4023091A5024091A6025091A70269832A
:1009D0007A838B839C8369817A818B819C810E943D
:1009E000740FC62ED72EE82EF92E20E030E046E117
:1009F00053E469837A838B839C8369817A818B81B9
:100A00009C810E943F1118160CF024C180E090E0F8
:100A1000A6E1B3E48093A4029093A502A093A6025A
:100A2000B093A7022091A4023091A5024091A602A2
:100A30005091A70209831A838E818B838D818C83C9
:100A400069817A818B819C810E94740FC62ED72E7A
:100A5000E82EF92E2091A0023091A1024091A2022D
:100A60005091A30269817A818B819C810E94730FCE
:100A7000262F372F482F592FC982DA82EB82FC822A
:100A800069817A818B819C810E94740FC62ED72E3A
:100A9000E82EF92E20E030E046E153E469837A83C2
:100AA0008B839C8369817A818B819C810E943F1119
:100AB00018160CF0F9C080E090E0A6E1B3E4809352
:100AC0003C0290933D02A0933E02B0933F02802FE0
:100AD000912FAE81BD818093A0029093A102A0933B
:100AE000A202B093A30226960FB6F894DEBF0FBE03
:100AF000CDBFDF91CF911F910F91FF90EF90DF90CD
:100B0000CF90089520E030E046E153ECC982DA82CC
:100B1000EB82FC8269817A818B819C810E94E00F4B
:100B200088236CF08C2D9D2DAE2DBF2D80939802C7
:100B300090939902A0939A02B0939B029FCD80E07C
:100B400090E0A6E1B3EC8093980290939902A09371
:100B50009A02B0939B0292CD20E030E046E153EC44
:100B6000C982DA82EB82FC8269817A818B819C81E5
:100B70000E94E00F88236CF08C2D9D2DAE2DBF2D93
:100B80008093ED019093EE01A093EF01B093F001FB
:100B9000F4CD80E090E0A6E1B3EC8093ED0190937A
:100BA000EE01A093EF01B093F001E7CD20E030E03B
:100BB00046E153ECC982DA82EB82FC8269817A8158
:100BC0008B819C810E94E00F88236CF08C2D9D2DE1
:100BD000AE2DBF2D8093560290935702A0935802DA
:100BE000B093590231CE80E090E0A6E1B3EC80935F
:100BF000560290935702A0935802B093590224CE04
:100C000020E030E046E153ECC982DA82EB82FC82DC
:100C100069817A818B819C810E94E00F88236CF02E
:100C20008C2D9D2DAE2DBF2D80937202909373025B
:100C3000A0937402B093750286CE80E090E0A6E1A6
:100C4000B3EC8093720290937302A0937402B093FA
:100C5000750279CE20E030E046E153ECC982DA82B9
:100C6000EB82FC8269817A818B819C810E94E00FFA
:100C700088236CF08C2D9D2DAE2DBF2D8093A4026A
:100C80009093A502A093A602B093A702CBCE80E0DA
:100C900090E0A6E1B3EC8093A4029093A502A09308
:100CA000A602B093A702BECE20E030E046E153ECAE
:100CB000C982DA82EB82FC8269817A818B819C8194
:100CC0000E94E00F88236CF08C2D9D2DAE2DBF2D42
:100CD00080933C0290933D02A0933E02B0933F026A
:100CE000F6CE80E090E0A6E1B3EC80933C029093D6
:100CF0003D02A0933E02B0933F02E9CECDB7DEB7EE
:100D00006D970FB6F894DEBF0FBECDBF0FB6F89447
:100D1000A8958091600088618093600010926000C7
:100D20000FBE84B1896284B98AB188668AB90E948B
:100D300033020E944C0224B72B8F84B7887F84BF74
:100D40002830B9F10E94110E88E191E00E94290E2D
:100D50000E94BF0080ED0E94C50085E70E9421012E
:100D600081ED0E9415010E943F01182F0E94180179
:100D700089E291E00E94290E812F90E00E94A10E4D
:100D800087EA91E00E94290E103709F442C082E3FD
:100D900091E00E94290E90E23FEF40E752E031508F
:100DA00040405040E1F700C0000085B1892785B977
:100DB000F3CFEEE2F2E011821082138212821582EA
:100DC0001482178216820E94BF000E945C0260E0BB
:100DD00080E00E945300789488E19BE00FB6F8947D
:100DE000A895809360000FBE909360000F2EFCE1E9
:100DF0008F2EF2E09F2EF02D0F2EF4EE2F2EF5E029
:100E00003F2EF02D0F2EF8EECF2EF3E0DF2EF02D3B
:100E100058C38EE391E00E94290E0E945C02EEE22C
:100E2000F2E01182108213821282158214821092D3
:100E3000E6011092E5018CE0FE013196DF011D9282
:100E40008A95E9F78EE491E00E94290E10925502EE
:100E50001092540208EC10E06894FF24F5F813C0D7
:100E6000EFE0FEE03197F1F700C0000080915402FE
:100E70009091550201969093550280935402803DC3
:100E800097400CF04CC00E947E028091FB01909133
:100E9000FC01092E000CAA0BBB0B49815A816B8106
:100EA0007C81840F951FA61FB71F89839A83AB830C
:100EB000BC838091840290918502092E000CAA0BBC
:100EC000BB0B4D815E816F817885840F951FA61FB6
:100ED000B71F8D839E83AF83B88780912A0290913C
:100EE0002B02092E000CAA0BBB0B49855A856B857A
:100EF0007C85840F951FA61FB71F89879A87AB87AC
:100F0000BC878091540290915502B8010E940F0F46
:100F1000892B09F4A5CF85B18F2585B9A1CF8E0185
:100F20000F5F1F4F0F2EFEE2EF2EF2E0FF2EF02D8F
:100F30006E012DE0C20ED11C0F2EF0ED8F2EF7E0CA
:100F40009F2EA12CB12CF02DF80181919191A191AE
:100F5000B1918F018D879E87AF87B88BBC01CD0182
:100F6000A50194010E94230FF80134972083318357
:100F700042835383D7012D933D937D010C151D05AD
:100F800019F789E691E00E94290E60E080E00E9456
:100F900053000E947900282F392F3093FF012093AE
:100FA000FE01233A3240C4F48CE891E00E94290EFD
:100FB0008091FE019091FF010E94530E90E2EFEFAD
:100FC000F3EC29E0E150F0402040E1F700C00000E0
:100FD00085B1892785B9F3CF789488EA91E00E949A
:100FE000290EECE1F2E0828193818E3D9340D8F3AB
:100FF0008EEB91E00E94290EEFCE80917C029091C1
:101000007D028B3A95400CF498C3E2E0F0E0F09357
:10101000E601E093E5011092980210929902109275
:101020009A0210929B021092F5011092F601109212
:10103000F7011092F8011092560210925702109286
:1010400058021092590210928E0210928F02109242
:101050009002109291021092A4021092A502109296
:10106000A6021092A7021092A0021092A102109262
:10107000A2021092A30280917C0290917D028F398E
:1010800097400CF45AC31092E6011092E50155C343
:10109000843D35E093070CF085C3845D95409C0149
:1010A000990F440B550B2D873E874F87588BCA01EC
:1010B000B9010E948F1020E030E040E450E46D87D9
:1010C0007E878F87988B6D857E858F8598890E9416
:1010D000E50F609386027093870280938802909355
:1010E000890260C3843D35E093070CF091C344ED61
:1010F00055E0481B590B9A01550F440B550B2D8792
:101100003E874F87588BCA01B9010E948F1020E09B
:1011100030E040E450E46D877E878F87988B6D8543
:101120007E858F8598890E94E50F60938A0270936F
:101130008B0280938C0290938D026AC3843D35E0CC
:1011400093070CF09EC344ED55E0481B590B9A01E0
:10115000550F440B550B2D873E874F87588BCA017F
:10116000B9010E948F1020E030E040E450E46D8728
:101170007E878F87988B6D857E858F8598890E9465
:10118000E50F60937E0270937F02809380029093BC
:10119000810277C38930974034F048E057E050939C
:1011A00037024093360280913602909137029C01BB
:1011B000990F440B550B2D873E874F87588BCA01DB
:1011C000B9010E948F10162F072FF82EE92E80915B
:1011D000720290917302A0917402B09175028D8B8E
:1011E0009E8BAF8BB88F9C01AD011D870E87FF864C
:1011F000E88A6D857E858F8598890E94730FB62E4B
:10120000A72E898F9A8F2091ED013091EE014091A8
:10121000EF015091F001298B3A8B4B8B5C8B409006
:101220003C0250903D0260903E0270903F026D87FC
:101230007E878F87988B6D857E858F8598890E94A4
:10124000740FA30192016D877E878F87988B6D85C0
:101250007E858F8598890E94740F6D877E878F8722
:10126000988B6D857E858F8598890E945710862F73
:10127000972F9D8F8C8F90934B0280934A022D89DC
:101280003E894F89588D1D870E87FF86E88A6D85B8
:101290007E858F8598890E94740FE62EF72E082F81
:1012A000192F262F372F482F592F69897A898B8933
:1012B0009C890E94740FA30192016D877E878F879E
:1012C000988B6D857E858F8598890E94730F6D87B9
:1012D0007E878F87988B6D857E858F8598890E9404
:1012E0005710262F372F3E8B2D8B862F972F9093BD
:1012F0002D0280932C0229893A894B895C89ED86DD
:10130000FE860F87188B6D857E858F8598890E9454
:10131000730FA30192016D877E878F87988B6D85F0
:101320007E858F8598890E94740F6D877E878F8751
:10133000988B6D857E858F8598890E945710062F22
:10134000172F862F972F90937B0280937A022989FB
:101350003A894B895C89BD86AE86898D8F879A8D47
:10136000988B6D857E858F8598890E94730FA30168
:1013700092016D877E878F87988B6D857E858F859F
:1013800098890E94730F6D877E878F87988B6D85F4
:101390007E858F8598890E945710862F972F262F3C
:1013A000372F3093930220939202AC8DBD8DAA31DA
:1013B000B44034F42AE134E030934B0220934A02E3
:1013C0004D895E894A31544034F4EAE1F4E0F09307
:1013D0002D02E0932C020A31144034F42AE134E067
:1013E00030937B0220937A028A31944034F44AE1AC
:1013F00054E0509393024093920280914A0290915C
:101400004B028134964034F080E496E090934B0296
:1014100080934A0280912C0290912D028134964053
:1014200034F0E0E4F6E0F0932D02E0932C0280919A
:101430007A0290917B028134964034F020E436E0C9
:1014400030937B0220937A028091920290919302D2
:10145000813496400CF437C240E456E05093930236
:101460004093920230C2039638C2039645C2039657
:1014700052C2039661C2A8952B8D203809F488C208
:10148000EFE14091E3015091E4019A01A3E4B8E057
:101490000E94420F282F392FCA01821B930B969569
:1014A0008795280F391F329522952F7023273F707B
:1014B0002327E29FC001E39F900D1124481759078D
:1014C00001F7D40112968D919C911397969587956B
:1014D000909383028093820214968D919C9115972C
:1014E00096958795909345028093440216968D9128
:1014F0009C911797969587959093FA018093F9019F
:1015000018968D919C919695879590937D028093E6
:101510007C020E947E0280918402909185029C014F
:10152000990F440B550B2D873E874F87588BCA0167
:10153000B9010E948F1020E030E043E852E46D874B
:101540007E878F87988B6D857E858F8598890E9491
:10155000E50F2DEC3CEC4CE45EE36D877E878F87D6
:10156000988B6D857E858F8598890E944411E62E23
:10157000F72E082F192F2DEC3CEC4CE45FE3609123
:1015800046027091470280914802909149020E9460
:101590004411262F372F482F592FED86FE860F87AF
:1015A000188B6D857E858F8598890E94740F609356
:1015B00046027093470280934802909349028091BB
:1015C000FB019091FC019C01990F440B550B2D8759
:1015D0003E874F87588BCA01B9010E948F1020E0C7
:1015E00030E043E852E46D877E878F87988B6D8566
:1015F0007E858F8598890E94E50F2DEC3CEC4CE4AC
:101600005EE36D877E878F87988B6D857E858F855E
:1016100098890E944411E62EF72E082F192F2DECE1
:101620003CEC4CE45FE360911602709117028091EC
:101630001802909119020E944411262F372F482F2B
:10164000592FED86FE860F87188B6D857E858F85D9
:1016500098890E94740F609316027093170280930A
:1016600018029093190280912A0290912B029C01FA
:10167000990F440B550B2D873E874F87588BCA0116
:10168000B9010E948F1020E030E043E852E46D87FA
:101690007E878F87988B6D857E858F8598890E9440
:1016A000E50F2DEC3CEC4CE45EE36D877E878F8785
:1016B000988B6D857E858F8598890E944411E62ED2
:1016C000F72E082F192F2DEC3CEC4CE45FE36091D2
:1016D00038027091390280913A0290913B020E9447
:1016E0004411262F372F482F592FED86FE860F875E
:1016F000188B6D857E858F8598890E94740F609305
:1017000038027093390280933A0290933B02009121
:10171000F9011091FA010A3134E0130774F4809151
:101720007C0290917D028A3194400CF041C181E0AD
:1017300090E09093E6018093E5011092860210926A
:101740008702109288021092890280918202909101
:101750008302853E25E092070CF49ACC845E954086
:101760009C01990F440B550B2D873E874F87588B53
:10177000CA01B9010E948F1020E030E040E450E43B
:101780006D877E878F87988B6D857E858F859889FD
:101790000E94E50F6093860270938702809388020F
:1017A0009093890210928A0210928B0210928C02FE
:1017B00010928D028091440290914502853E35E061
:1017C00093070CF48FCCA101481B590B9A01550FBC
:1017D000440B550B2D873E874F87588BCA01B901A3
:1017E0000E948F1020E030E040E450E46D877E8757
:1017F0008F87988B6D857E858F8598890E94E50FF0
:1018000060938A0270938B0280938C0290938D0276
:1018100010927E0210927F0210928002109281023A
:101820000B31144074F180917C0290917D02853ED1
:1018300045E094070CF482CCD101A81BB90B9D01A3
:10184000BB0F440B550B2D873E874F87588BCA0122
:10185000B9010E948F1020E030E040E450E46D8731
:101860007E878F87988B6D857E858F8598890E946E
:10187000E50F60937E0270937F02809380029093C5
:1018800081020E94D6028091F9019091FA01909311
:101890003702809336022091E5013091E601223033
:1018A000310509F477CCD0924B02C0924A02D09213
:1018B0002D02C0922C02D0927B02C0927A02D0926A
:1018C0009302C092920220914A0230914B02285E0C
:1018D0003340C90199230CF4C6CD9595879595950C
:1018E000879588BD20912C0230912D02285E3340CF
:1018F000C90199230CF4B9CD959587959595879550
:1019000087BD20917A0230917B02285E3340C90165
:1019100099230CF4ACCD9595879595958795A3EB78
:10192000B0E08C932091920230919302285E334074
:10193000C90199230CF49DCD95958795959587952B
:10194000E4EBF0E080838091E7019091E80101965B
:101950009093E8018093E7010E947900282F392FA6
:101960003093FF012093FE01233A32400CF083CDE7
:101970008091E7019091E80168EC70E00E940F0F00
:10198000892B09F478CD85B190E2892785B973CD8B
:101990008091E7019091E80169E170E00E940F0FEA
:1019A000892B09F46DCD85B190E2892785B968CD81
:1019B0008091E5019091E6018130910509F41DCBFC
:1019C000029709F0BACE57CB1F921FB61F9211246F
:1019D0002F933F934F935F936F937F938F939F9337
:1019E000EF93FF934A9B2FC0E4E8F0E08081918160
:1019F0002091060230910702821B930B4081518196
:101A000070E060E040930602509307026093080282
:101A1000709309029C01295037402F3549E0340763
:101A200020F49093230280932202FF91EF919F91E3
:101A30008F917F916F915F914F913F912F911F9067
:101A40001FBE1F9018954C9B22C0E4E8F0E08081F7
:101A500091812091060230910702821B930B4081F5
:101A6000518170E060E0409306025093070260935A
:101A70000802709309029C01295037402F3549E034
:101A8000340798F69093250280932402CECF4F9985
:101A90001EC08091E201882341F24F99C6CF809108
:101AA0008400909185002091060230910702821BEC
:101AB000930B9C01295037402F3549E0340720F41F
:101AC00090932902809328021092E201AECFE4E8BD
:101AD000F0E0808191812091060230910702821B03
:101AE000930B4081518170E060E040930602509377
:101AF000070260930802709309029C012950374045
:101B00002F3549E0340720F4909327028093260272
:101B100081E08093E20189CF1F921FB61F921124AA
:101B20002F933F934F935F936F937F938F939F93E5
:101B3000EF93FF93199B1AC01092850010928400B6
:101B400010920602109207021092080210920902E7
:101B5000FF91EF919F918F917F916F915F914F9145
:101B60003F912F911F901FBE1F9018951A9B22C066
:101B7000E4E8F0E080819181209106023091070233
:101B8000821B930B4081518170E060E0409306021C
:101B90005093070260930802709309029C01295038
:101BA00037402F3549E0340798F690931F02809311
:101BB0001E02CECF1C9BCCCFE4E8F0E08081918167
:101BC0002091060230910702821B930B40815181C4
:101BD00070E060E0409306025093070260930802B1
:101BE000709309029C01295037402F3549E0340792
:101BF00008F0AECF9093210280932002A9CF8F935B
:101C00008FB78F939F938091E3019091E4010196A8
:101C10009093E4018093E3019F918F918FBF8F9107
:101C2000189587E68093C4001092C500E1ECF0E0BF
:101C3000808188618083E2ECF0E08081866080832F
:101C40000895E0ECF0E0908195FFFDCF8093C60011
:101C500008950F931F93CF93DF93C82FD92F8881B7
:101C60008823B1F0219610E000E00E94210E0F5F62
:101C70001F4F89918111F9CF8AE00E94210E8DE0DA
:101C80000E94210EC801DF91CF911F910F910895FD
:101C900010E000E0F1CFE0ECF0E080818823ECF789
:101CA0008091C6000895EF92FF920F931F93CF93F8
:101CB000DF93082F192F003187E21807B0F4C0E135
:101CC000D7E2AE019E01ADECBCEC0E94420FEC01EC
:101CD000D695C795D695C795D695C7950C171D0768
:101CE00010F54436510568F71EC0C0E1D7E21BC0AD
:101CF000C801BE010E94FB0EE82EF92E80E3860F7C
:101D00000E94210E0E2D1F2DC230D10598F09E018C
:101D1000ADECBCEC0E94420FEC01D695C795D69570
:101D2000C795D695C7950C171D0710F780E30E943D
:101D3000210EEACFDF91CF911F910F91FF90EF908D
:101D40000895EF92FF920F931F93CF93DF93082F85
:101D5000192F1123DCF0F801003187E21807E8F4AD
:101D6000C0E1D7E2AE019E01ADECBCEC0E94420F97
:101D7000EC01D695C795D695C795D695C795EC171E
:101D8000FD0700F54436510568F71CC08DE20E943E
:101D9000210E119501951109DECFC0E1D7E212C0E5
:101DA00080E30E94210EC230D105E8F09E01ADEC27
:101DB000BCEC0E94420FEC01D695C795D695C7950D
:101DC000D695C795802F912F0C171D0748F3BE019C
:101DD0000E94FB0EE82EF92E80E3860F0E94210E52
:101DE0000E2D1F2DE0CFDF91CF911F910F91FF900E
:101DF000EF9008950895AA1BBB1B51E107C0AA1FCD
:101E0000BB1FA617B70710F0A61BB70B881F991F9B
:101E10005A95A9F780959095BC01CD01089597FB3F
:101E2000072E16F4009407D077FD09D00E94FB0E10
:101E300007FC05D03EF4909581959F4F08957095CD
:101E400061957F4F0895052E97FB1EF400940E9424
:101E50003A0F57FD07D00E94510F07FC03D04EF4F4
:101E60000C943A0F50954095309521953F4F4F4F28
:101E70005F4F089590958095709561957F4F8F4F36
:101E80009F4F0895A29FB001B39FC001A39F700D03
:101E9000811D1124911DB29F700D811D1124911D72
:101EA0000895A1E21A2EAA1BBB1BFD010DC0AA1F9B
:101EB000BB1FEE1FFF1FA217B307E407F50720F0B3
:101EC000A21BB30BE40BF50B661F771F881F991F2E
:101ED0001A9469F760957095809590959B01AC0177
:101EE000BD01CF0108955058BB27AA270E948B0F30
:101EF0000C9405110E94F71038F00E94FE1020F09B
:101F000039F49F3F19F426F40C94F4100EF4E09584
:101F1000E7FB0C94EE10E92F0E94161158F3BA1744
:101F2000620773078407950720F079F4A6F50C94EF
:101F300038110EF4E0950B2EBA2FA02D0B01B9012C
:101F400090010C01CA01A0011124FF27591B99F02F
:101F5000593F50F4503E68F11A16F040A22F232F3B
:101F6000342F4427585FF3CF469537952795A7958B
:101F7000F0405395C9F77EF41F16BA0B620B730B32
:101F8000840BBAF09150A1F0FF0FBB1F661F771FA3
:101F9000881FC2F70EC0BA0F621F731F841F48F458
:101FA000879577956795B795F7959E3F08F0B0CFE1
:101FB0009395880F08F09927EE0F979587950895C8
:101FC0000E94CA1008F481E008950E94F90F0C9451
:101FD00005110E94FE1058F00E94F71040F029F4FD
:101FE0005F3F29F00C94EE1051110C9439110C94B0
:101FF000F4100E94161168F39923B1F3552391F35D
:10200000951B550BBB27AA2762177307840738F067
:102010009F5F5F4F220F331F441FAA1FA9F335D0C4
:102020000E2E3AF0E0E832D091505040E695001C78
:10203000CAF72BD0FE2F29D0660F771F881FBB1F32
:10204000261737074807AB07B0E809F0BB0B802D10
:10205000BF01FF2793585F4F3AF09E3F510578F03C
:102060000C94EE100C9439115F3FE4F3983ED4F3D6
:10207000869577956795B795F7959F5FC9F7880F10
:10208000911D9695879597F90895E1E0660F771F62
:10209000881FBB1F621773078407BA0720F0621BF3
:1020A000730B840BBA0BEE1F88F7E09508950E941E
:1020B0005E106894B1110C94391108950E941E119C
:1020C00088F09F5798F0B92F9927B751B0F0E1F0F9
:1020D000660F771F881F991F1AF0BA95C9F714C0A9
:1020E000B13091F00E943811B1E008950C9438118C
:1020F000672F782F8827B85F39F0B93FCCF38695E2
:1021000077956795B395D9F73EF49095809570953E
:1021100061957F4F8F4F9F4F0895E89409C097FBBB
:102120003EF490958095709561957F4F8F4F9F4FAE
:102130009923A9F0F92F96E9BB279395F6958795F2
:1021400077956795B795F111F8CFFAF4BB0F11F4B5
:1021500060FF1BC06F5F7F4F8F4F9F4F16C088235C
:1021600011F096E911C0772321F09EE8872F762F92
:1021700005C0662371F096E8862F70E060E02AF0D3
:102180009A95660F771F881FDAF7880F96958795BF
:1021900097F90895990F0008550FAA0BE0E8FEEF94
:1021A00016161706E807F907C0F012161306E4071B
:1021B000F50798F0621B730B840B950B39F40A2614
:1021C00061F0232B242B252B21F408950A2609F4F2
:1021D000A140A6958FEF811D811D089597F99F67F6
:1021E00080E870E060E008959FEF80EC089500249F
:1021F0000A941616170618060906089500240A946C
:1022000012161306140605060895092E0394000CF1
:1022100011F4882352F0BB0F40F4BF2B11F460FF80
:1022200004C06F5F7F4F8F4F9F4F089557FD9058A9
:10223000440F551F59F05F3F71F04795880F97FB8A
:10224000991F61F09F3F79F0879508951216130644
:102250001406551FF2CF4695F1DF08C01616170673
:102260001806991FF1CF86957105610508940895A8
:10227000E894BB2766277727CB0197F908950E943A
:10228000CA1008F48FEF08950E9457110C9405119D
:102290000E94F71038F00E94FE1020F0952311F0F4
:1022A0000C94EE100C94F41011240C9439110E942B
:1022B000161170F3959FC1F3950F50E0551F629F63
:1022C000F001729FBB27F00DB11D639FAA27F00D8F
:1022D000B11DAA1F649F6627B00DA11D661F829FB6
:1022E0002227B00DA11D621F739FB00DA11D621F9B
:1022F000839FA00D611D221F749F3327A00D611DB8
:10230000231F849F600D211D822F762F6A2F112499
:102310009F5750409AF0F1F088234AF0EE0FFF1FCC
:10232000BB1F661F771F881F91505040A9F79E3F23
:10233000510580F00C94EE100C9439115F3FE4F3DA
:10234000983ED4F3869577956795B795F795E79579
:102350009F5FC1F7FE2B880F911D9695879597F982
:062360000895F894FFCF80
:10236600000000406F12833ACDCCCC3F0000004005
:102376006F12833ACDCCCC3F7561727420696E6959
:102386007469616C697A6564004779726F204944A3
:102396003A006779726F206572726F7221007365F9
:1023A6007474696E67207570206779726F00636C4C
:1023B600616962726174696E67206779726F206FF6
:1023C60066667365742E2E2E00696E697469616C7B
:1023D600697A652061646320666F72206261747435
:1023E60065727920766F6C746167650062617474DA
:1023F60065727920766F6C7461676520746F6F20E3
:102406006C6F772E2E2E070077616974696E6720D0
:10241600666F722072635F7369676E616C006F6BC3
:10242600200A7374617274696E67206C6F6F700036
:1024360096000000803F52499D390000803F96007B
:022446009600FE
:04000005008001E591
:00000001FF
