:100000000C9434000C9451000C9451000C94400B4F
:100010000C9451000C94F60A0C9451000C9451006D
:100020000C9451000C9451000C9451000C9451000C
:100030000C9451000C9451000C9451000C945100FC
:100040000C9451000C9451000C9451000C945100EC
:100050000C9451000C9451000C9451000C945100DC
:100060000C9451000C94510011241FBECFEFD8E026
:10007000DEBFCDBF11E0A0E0B1E0EAE7FDE102C0E4
:1000800005900D92A635B107D9F722E0A6E5B1E0BB
:1000900001C01D92A634B207E1F70E9447060C94F6
:1000A000BB0E0C9400001092B9008CE08093B80055
:1000B000089594EA9093BC00ECEBF0E090819923D2
:1000C000ECF79091B900987F983011F09031A9F435
:1000D0008093BB0084E88093BC00ECEBF0E080816F
:1000E0008823ECF79091B900987F983141F081E036
:1000F000903409F0089580E0089581E0089580E04B
:10010000F9CFCF93DF93ECEBF0E024EAA9EBB0E07A
:10011000CBEBD0E034E844E9208390819923ECF7DD
:100120009C91987F983011F09031B1F7888330839B
:1001300090819923ECF79C91987F903229F0983523
:1001400019F0DF91CF9108954083908194FDFDCF08
:10015000E3CF0E945900089584E98093BC00ECEB42
:10016000F0E0808184FDFDCF08958093BB0084E89A
:100170008093BC00ECEBF0E080818823ECF7909159
:10018000B900987F81E0983209F0089580E0FDCFB2
:1001900084EC8093BC00ECEBF0E080818823ECF7EA
:1001A0008091BB00089584E88093BC00ECEBF0E004
:1001B00080818823ECF78091BB00089593EA94BD79
:1001C00082E085BD17BC18BC9093B0008093B1004D
:1001D0001092B3001092B400E1E8F0E080818260F8
:1001E00080830895E8E6F0E0808185608083EDE615
:1001F000F0E0808184698083EBE6F0E080818661B5
:100200008083089580ED0E9459008CE60E94B5001D
:1002100080E00E94B5000E94AC0080ED0E94590071
:100220008BE10E94B50088E00E94B5000E94AC00FE
:1002300080ED0E9459008CE10E94B50088E00E9488
:10024000B5000E94AC0008950F931F93CF93DF93E6
:1002500000D000D0CDB7DEB780ED0E9459008BE30F
:100260000E94B50081ED0E94A90026EE31E03A839C
:10027000298302E012E00E94C80090E0A981BA81BF
:100280008D939D93BA83A983A017B107A1F70E940C
:10029000D30080E09091F6012091F8013091F901AE
:1002A000822B932B9C01990F440B550B29833A8386
:1002B0004B835C83CA01B9010E94990D60936D0163
:1002C00070936E0180936F019093700180E0909124
:1002D000FA012091FC013091FD01822B932B9C01AE
:1002E000990F440B550B29833A834B835C83CA01D6
:1002F000B9010E94990D60931E0270931F028093B2
:1003000020029093210280E09091FE012091000252
:1003100030910102822B932B9C01990F440B550BBA
:1003200029833A834B835C83CA01B9010E94990DEA
:100330006093AC017093AD018093AE019093AF01D7
:100340000F900F900F900F90DF91CF911F910F9111
:1003500008952F923F924F925F926F927F928F9269
:100360009F92AF92BF92CF92DF92EF92FF920F9344
:100370001F93CF93DF9300D000D000D0CDB7DEB76E
:1003800020912202309123024091240250912502B3
:100390006091D2017091D3018091D4019091D501E7
:1003A0000E947D0C062F172F8E839D8320911E01A6
:1003B00030911F01409120015091210169837A837E
:1003C0008B839C8369817A818B819C810E944E0EF4
:1003D0002091360230913702409138025091390213
:1003E00069837A838B839C8369817A818B819C81E9
:1003F0000E947E0C662E772E882E992E862F972DA2
:10040000A82DB92D8093360290933702A09338021D
:10041000B0933902A0901801B090190195010B2CEE
:10042000000C440B550B29833A834B835C83CA0130
:10043000B9010E94990DC62ED72EE82EF92E262F2F
:10044000372F482F592F69827A828B829C8269814B
:100450007A818B819C810E94490E18160CF0CAC2C9
:100460008C2D9D2DAE2DBF2D80933602909337029B
:10047000A0933802B09339022091220130912301D8
:10048000409124015091250109831A838E818B8329
:100490009D819C8369817A818B819C810E944E0E13
:1004A0002091360230913702409138025091390242
:1004B00069837A838B839C8369817A818B819C8118
:1004C0000E947E0C662E772E882E992E2091670131
:1004D000309168014091690150916A0109831A8342
:1004E000AE81AB83BD81BC8369817A818B819C8124
:1004F0000E947D0C20911A0130911B0140911C013A
:1005000050911D0169837A838B839C8369817A81F1
:100510008B819C810E944E0E262F372F482F592FFA
:1005200069827A828B829C8269817A818B819C81AB
:100530000E947E0C662E772E882E992E262F372F1E
:10054000482F592FC982DA82EB82FC8269817A8135
:100550008B819C810E94EA0C88230CF07DC28C2D3B
:100560009D2DAE2DBF2D80935F0190936001A093D0
:100570006101B0936201802F912FAE81BD81809384
:10058000670190936801A0936901B0936A0120917B
:100590002602309127024091280250912902609151
:1005A00098017091990180919A0190919B010E940C
:1005B0007D0C062F172F8E839D8320911001309183
:1005C0001101409112015091130169837A838B8349
:1005D0009C8369817A818B819C810E944E0E20913F
:1005E000E2013091E3014091E4015091E50169831A
:1005F0007A838B839C8369817A818B819C810E9421
:100600007E0C662E772E882E992E862F972DA82D5C
:10061000B92D8093E2019093E301A093E401B0939C
:10062000E501A0900A01B0900B01C5010B2C000C54
:10063000AA0BBB0B89839A83AB83BC83BC01CD011E
:100640000E94990DC62ED72EE82EF92E262F372F71
:10065000482F592F69827A828B829C8269817A81A4
:100660008B819C810E94490E18160CF032C28C2D91
:100670009D2DAE2DBF2D8093E2019093E301A093B9
:10068000E401B093E50120911401309115014091EE
:1006900016015091170109831A838E818B839D81E6
:1006A0009C8369817A818B819C810E944E0E20916E
:1006B000E2013091E3014091E4015091E501698349
:1006C0007A838B839C8369817A818B819C810E9450
:1006D0007E0C662E772E882E992E20912A0230913C
:1006E0002B0240912C0250912D0209831A83AE8176
:1006F000AB83BD81BC8369817A818B819C810E949F
:100700007D0C20910C0130910D0140910E01509112
:100710000F0169837A838B839C8369817A818B81C2
:100720009C810E944E0E262F372F482F592F698209
:100730007A828B829C8269817A818B819C810E94E2
:100740007E0C662E772E882E992E262F372F482F37
:10075000592FC982DA82EB82FC8269817A818B818E
:100760009C810E94EA0C88230CF0E5C18C2D9D2D04
:10077000AE2DBF2D80930A0290930B02A0930C0222
:10078000B0930D02802F912FAE81BD8180932A02FC
:1007900090932B02A0932C02B0932D02209118026B
:1007A0003091190240911A0250911B026091C401CC
:1007B0007091C5018091C6019091C7010E947D0C86
:1007C000062F172F8E839D83862F912FAE81BD819B
:1007D0008093320290933302A0933402B093350297
:1007E00020910201309103014091040150910501D3
:1007F00009831A83AB83BC8369817A818B819C8155
:100800000E944E0E209142023091430240914402D8
:100810005091450269837A838B839C8369817A81B5
:100820008B819C810E947E0C662E772E882E992EBD
:10083000862F972DA82DB92D8093420290934302C5
:10084000A0934402B0934502A0900001B090010132
:1008500095010B2C000C440B550B29833A834B83D9
:100860005C83CA01B9010E94990DC62ED72EE82ECD
:10087000F92E262F372F482F592F69827A828B82A3
:100880009C8269817A818B819C810E94490E181615
:100890000CF08EC18C2D9D2DAE2DBF2D809342026C
:1008A00090934302A0934402B09345022091060125
:1008B00030910701409108015091090109831A8381
:1008C0008E818B839D819C8369817A818B819C81C0
:1008D0000E944E0E20914202309143024091440208
:1008E0005091450269837A838B839C8369817A81E5
:1008F0008B819C810E947E0C662E772E882E992EED
:1009000020913E0230913F024091400250914102BD
:1009100009831A83AE81AB83BD81BC8369817A81EF
:100920008B819C810E947D0C209157013091580150
:100930004091590150915A0169837A838B839C833A
:1009400069817A818B819C810E944E0E262F372FE0
:10095000482F592F69827A828B829C8269817A81A1
:100960008B819C810E947E0C662E772E882E992E7C
:10097000262F372F482F592FC982DA82EB82FC822B
:1009800069817A818B819C810E94EA0C88230CF01A
:1009900041C18C2D9D2DAE2DBF2D8093C80190930C
:1009A000C901A093CA01B093CB01802F912FAE81D2
:1009B000BD8180933E0290933F02A0934002B0938A
:1009C000410226960FB6F894DEBF0FBECDBFDF9171
:1009D000CF911F910F91FF90EF90DF90CF90BF903C
:1009E000AF909F908F907F906F905F904F903F90CF
:1009F0002F900895882799278A199B099C01990FA0
:100A0000440B550B29833A834B835C83CA01B9019C
:100A10000E94990D262E372E482E592E262F372F1D
:100A2000482F592F69827A828B829C8269817A81D0
:100A30008B819C810E94EA0C88230CF01DCD822DB5
:100A4000932DA42DB52D8093360290933702A09359
:100A50003802B093390210CDB194A194B108950138
:100A6000BB0C440B550B29833A834B835C83CA012F
:100A7000B9010E94990DC62ED72EE82EF92E262FE9
:100A8000372F482F592F69827A828B829C82698105
:100A90007A818B819C810E94EA0C88236CF0862DE0
:100AA000972DA82DB92D80935F0190936001A0939D
:100AB0006101B09362015FCD8C2D9D2DAE2DBF2DB8
:100AC00080935F0190936001A0936101B0936201F4
:100AD00052CD882799278A199B099C01990F440BAD
:100AE000550B29833A834B835C83CA01B9010E9469
:100AF000990D262E372E482E592E262F372F482F68
:100B0000592F69827A828B829C8269817A818B815A
:100B10009C810E94EA0C88230CF0B5CD822D932D88
:100B2000A42DB52D8093E2019093E301A093E401FD
:100B3000B093E501A8CDB194A194B1089501BB0C87
:100B4000440B550B29833A834B835C83CA01B9015B
:100B50000E94990DC62ED72EE82EF92E262F372F5C
:100B6000482F592F69827A828B829C8269817A818F
:100B70008B819C810E94EA0C88236CF0862D972D36
:100B8000A82DB92D80930A0290930B02A0930C021A
:100B9000B0930D02F7CD8C2D9D2DAE2DBF2D8093E2
:100BA0000A0290930B02A0930C02B0930D02EACDBF
:100BB000882799278A199B099C01990F440B550B8B
:100BC00029833A834B835C83CA01B9010E94990D42
:100BD000262E372E482E592E262F372F482F592FA5
:100BE00069827A828B829C8269817A818B819C81E5
:100BF0000E94EA0C88230CF059CE822D932DA42D4F
:100C0000B52D8093420290934302A0934402B09387
:100C100045024CCEB194A194B1089501BB0C440B94
:100C2000550B29833A834B835C83CA01B9010E9427
:100C3000990DC62ED72EE82EF92E262F372F482FA6
:100C4000592F69827A828B829C8269817A818B8119
:100C50009C810E94EA0C88236CF0862D972DA82D8C
:100C6000B92D8093C8019093C901A093CA01B09394
:100C7000CB019BCE8C2D9D2DAE2DBF2D8093C80119
:100C80009093C901A093CA01B093CB018ECECDB78A
:100C9000DEB760970FB6F894DEBF0FBECDBF84B14C
:100CA000886284B98AB188668AB90E94DE000E948F
:100CB000F2000E94700B86E291E00E94880B0E9475
:100CC000530080ED0E94590085E70E94B50081ED38
:100CD0000E94A9000E94D30089830E94AC00298150
:100CE000822F90E00E94000C86E391E00E94880B26
:100CF00087E391E00E94880B0E94020187E491E063
:100D00000E94880B78940F2EFEE92F2EF1E03F2EE3
:100D1000F02D0F2EF8EE8F2EF3E09F2EF02D51C305
:100D200080911602909117028B3A95400CF43FC2C5
:100D300082E090E09093310280933002109236026C
:100D40001092370210923802109239021092670105
:100D5000109268011092690110926A011092E201EA
:100D60001092E3011092E4011092E50110922A0220
:100D700010922B0210922C0210922D02109242021D
:100D800010924302109244021092450210923E02C9
:100D900010923F021092400210924102809116027E
:100DA000909117028F3997400CF401C210923102D2
:100DB00010923002FCC1843D35E093070CF02CC248
:100DC000845D95409C01990F440B550B29833A8310
:100DD0004B835C83CA01B9010E94990D20E030E089
:100DE00040E450E469837A838B839C8369817A81B0
:100DF0008B819C810E94EF0C6093220270932302EE
:100E0000809324029093250207C2843D35E0930726
:100E10000CF037C2845D95409C01990F440B550B33
:100E200029833A834B835C83CA01B9010E94990DDF
:100E300020E030E040E450E469837A838B839C8334
:100E400069817A818B819C810E94EF0C60932602DC
:100E500070932702809328029093290212C2843D46
:100E600035E093070CF047C2845D95409C01990FD3
:100E7000440B550B29833A834B835C83CA01B90128
:100E80000E94990D20E030E040E450E469837A83C9
:100E90008B839C8369817A818B819C810E94EF0C7A
:100EA000609318027093190280931A0290931B02A8
:100EB00022C28930974034F048E057E05093C30194
:100EC0004093C2018091C2019091C3019C01990F8E
:100ED000440B550B29833A834B835C83CA01B901C8
:100EE0000E94990D162F788B8E87092FC0900A02C9
:100EF000D0900B02E0900C02F0900D02A701960139
:100F000069837A839E859B830C8369817A818B8137
:100F10009C810E947D0CB62E79878A879B872091C1
:100F20005F013091600140916101509162012D8318
:100F30003E834F8358874090C8015090C90160900C
:100F4000CA017090CB0169837A839A859B83AB85B4
:100F5000AC8369817A818B819C810E947E0CA30184
:100F6000920169837A838B839C8369817A818B81E7
:100F70009C810E947E0C69837A838B839C83698128
:100F80007A818B819C810E94610D262F372F3D87AE
:100F90002C87862F972F9093D7018093D601A70196
:100FA00096011983B889BA83EE85EB830C83698136
:100FB0007A818B819C810E947E0CF62EA72E888BD5
:100FC0009E87262F372F482F592F6D817E818F8145
:100FD00098850E947E0CA301920169837A838B839A
:100FE0009C8369817A818B819C810E947D0C6983BD
:100FF0007A838B839C8369817A818B819C810E9417
:10100000610D062F172F862F972F9093B101809394
:10101000B0012D813E814F815885F982AA82F889DD
:10102000FB838E858C8369817A818B819C810E9470
:101030007D0CA301920169837A838B839C836981F0
:101040007A818B819C810E947E0C69837A838B8359
:101050009C8369817A818B819C810E94610D6E875E
:101060007F87862F972F90931302809312022D81F2
:101070003E814F815885B982B985BA83EA85EB8371
:10108000FB85FC8369817A818B819C810E947D0C28
:10109000A301920169837A838B839C8369817A811E
:1010A0008B819C810E947D0C69837A838B839C83D6
:1010B00069817A818B819C810E94610D862F972F97
:1010C000262F372F30932F0220932E022C853D851B
:1010D000203B344034F4A0EBB4E0B093D701A093AC
:1010E000D601003B144034F4E0EBF4E0F093B1019E
:1010F000E093B0012E853F85203B344034F4A0EBD3
:10110000B4E0B0931302A0931202803B944034F4F5
:10111000E0EBF4E0F0932F02E0932E028091D601F1
:101120009091D701813D974034F020ED37E0309326
:10113000D7012093D6018091B0019091B101813DFA
:10114000974034F040ED57E05093B1014093B00127
:101150008091120290911302813D974034F080ED0E
:1011600097E0909313028093120280912E02909147
:101170002F02813D97400CF4E0C0E0EDF7E0F093E2
:101180002F02E0932E02D9C00396E1C00396EEC071
:101190000396FBC003960AC1809130029091310200
:1011A0008130910509F4BCCD029709F4F7CD109276
:1011B00022021092230210922402109225028091A2
:1011C0001C0290911D02853EB5E09B070CF4F3CD07
:1011D000845E95409C01990F440B550B29833A83FB
:1011E0004B835C83CA01B9010E94990D20E030E075
:1011F00040E450E469837A838B839C8369817A819C
:101200008B819C810E94EF0C6093220270932302D9
:1012100080932402909325021092260210922702B6
:1012200010922802109229028091D0019091D10150
:10123000853E35E093070CF4E8CD845E95409C0133
:10124000990F440B550B29833A834B835C83CA0166
:10125000B9010E94990D20E030E040E450E4698338
:101260007A838B839C8369817A818B819C810E94A4
:10127000EF0C6093260270932702809328029093CC
:101280002902109218021092190210921A0210925A
:101290001B024D815E814B3154406CF180911602EE
:1012A00090911702853EA5E09A070CF4D8CD845E94
:1012B00095409C01990F440B550B29833A834B832E
:1012C0005C83CA01B9010E94990D20E030E040E43E
:1012D00050E469837A838B839C8369817A818B81D3
:1012E0009C810E94EF0C6093180270931902809306
:1012F0001A0290931B020E94A90180916B019091A8
:101300006C019093C3018093C2012091300230910F
:1013100031022230310509F4CCCD9092D701809270
:10132000D6019092B1018092B00190921302809206
:10133000120290922F0280922E022091D6013091BB
:10134000D701285E3340C90199230CF41DCF959530
:1013500087959595879587BD2091B0013091B10112
:10136000285E3340C90199230CF410CF95958795D9
:101370009595879588BD2091120230911302285EC1
:101380003340C90199230CF403CF95958795959522
:101390008795A3EBB0E08C9320912E0230912F0221
:1013A000285E3340C90199230CF4F4CE95958795B6
:1013B00095958795E4EBF0E0808385B1F0E28F2787
:1013C00085B9D10112968D919C9113979695879529
:1013D00090931D0280931C0214968D919C911597F9
:1013E000969587959093D1018093D00116968D9113
:1013F0009C9117979695879590936C0180936B01BC
:1014000018968D919C91969587959093170280934D
:1014100016020E9424012AE432E944E652E4609173
:101420001E0270911F0280912002909121020E9461
:10143000EF0C2DEC3CEC4CE45EE369837A838B8308
:101440009C8369817A818B819C810E944E0E062F3C
:10145000172F89879D832DEC3CEC4CE45FE3609172
:10146000D2017091D3018091D4019091D5010E9455
:101470004E0E262F372F482F592F09831A83B985EF
:10148000BB83ED81EC8369817A818B819C810E9491
:101490007E0C6093D2017093D3018093D40190931A
:1014A000D5012AE432E944E652E460916D0170917D
:1014B0006E0180916F01909170010E94EF0C2DECF4
:1014C0003CEC4CE45EE369837A838B839C83698183
:1014D0007A818B819C810E944E0E062F172F89875F
:1014E0009D832DEC3CEC4CE45FE36091980170919E
:1014F000990180919A0190919B010E944E0E262F96
:10150000372F482F592F09831A83F985FB838D8143
:101510008C8369817A818B819C810E947E0C60938F
:1015200098017093990180939A0190939B012AE40A
:1015300032E944E652E46091AC017091AD018091D2
:10154000AE019091AF010E94EF0C2DEC3CEC4CE40D
:101550005EE369837A838B839C8369817A818B8143
:101560009C810E944E0E062F172F89879D832DEC9C
:101570003CEC4CE45FE36091C4017091C501809143
:10158000C6019091C7010E944E0E262F372F482F7B
:10159000592F09831A8399859B83AD81AC83698117
:1015A0007A818B819C810E947E0C6093C401709330
:1015B000C5018093C6019093C701E0916B01F09142
:1015C0006C01FE83ED83EA31F4400CF0F0CD8091A4
:1015D0001602909117028A3194400CF0DDCD41E063
:1015E00050E05093310240933002E1CD1F921FB67C
:1015F0001F9211248F939F93EF93FF934A9B12C0E6
:10160000E4E8F0E080819181118210829093A5013D
:101610008093A401FF91EF919F918F911F901FBE26
:101620001F9018954C9B0BC0E4E8F0E080819181FD
:10163000118210829093A7018093A601EBCF4F995E
:1016400011C080915601882329F34F99E3CF8091EF
:101650008400909185009093AB018093AA01109231
:101660005601D8CFE4E8F0E08081918111821082A8
:101670009093A9018093A80181E080935601CACF7D
:101680001F921FB61F9211248F939F93EF93FF9386
:10169000199B0CC01092850010928400FF91EF916D
:1016A0009F918F911F901FBE1F9018951A9B0BC082
:1016B000E4E8F0E080819181118210829093A10191
:1016C0008093A001EBCF1C9BE9CFE4E8F0E08081A0
:1016D0009181118210829093A3018093A201DECFA9
:1016E00087E68093C4001092C500E1ECF0E08081B1
:1016F00088618083E2ECF0E08081866080830895D9
:10170000E0ECF0E0908195FFFDCF8093C600089556
:101710000F931F93CF93DF93C82FD92F88818823EE
:10172000B1F0219610E000E00E94800B0F5F1F4F88
:1017300089918111F9CF8AE00E94800B8DE00E948F
:10174000800BC801DF91CF911F910F91089510E098
:1017500000E0F1CFE0ECF0E080818823ECF78091AD
:10176000C6000895EF92FF920F931F93CF93DF93DC
:10177000082F192F003187E21807B0F4C0E1D7E233
:10178000AE019E01ADECBCEC0E946E0CEC01D69556
:10179000C795D695C795D695C7950C171D0710F513
:1017A0004436510568F71EC0C0E1D7E21BC0C8012E
:1017B000BE010E945A0CE82EF92E80E3860F0E948B
:1017C000800B0E2D1F2DC230D10598F09E01ADEC7F
:1017D000BCEC0E946E0CEC01D695C795D695C795CA
:1017E000D695C7950C171D0710F780E30E94800B54
:1017F000EACFDF91CF911F910F91FF90EF90089565
:10180000EF92FF920F931F93CF93DF93082F192F1F
:101810001123DCF0F801003187E21807E8F4C0E199
:10182000D7E2AE019E01ADECBCEC0E946E0CEC0167
:10183000D695C795D695C795D695C795EC17FD074C
:1018400000F54436510568F71CC08DE20E94800BFC
:10185000119501951109DECFC0E1D7E212C080E3F6
:101860000E94800BC230D105E8F09E01ADECBCECCB
:101870000E946E0CEC01D695C795D695C795D69566
:10188000C795802F912F0C171D0748F3BE010E94AA
:101890005A0CE82EF92E80E3860F0E94800B0E2D45
:1018A0001F2DE0CFDF91CF911F910F91FF90EF900F
:1018B00008950895AA1BBB1B51E107C0AA1FBB1FB7
:1018C000A617B70710F0A61BB70B881F991F5A95CC
:1018D000A9F780959095BC01CD010895A29FB00114
:1018E000B39FC001A39F700D811D1124911DB29F54
:1018F000700D811D1124911D08955058BB27AA27F2
:101900000E94950C0C940F0E0E94010E38F00E945C
:10191000080E20F039F49F3F19F426F40C94FE0DC4
:101920000EF4E095E7FB0C94F80DE92F0E94200ED1
:1019300058F3BA17620773078407950720F079F404
:10194000A6F50C94420E0EF4E0950B2EBA2FA02DA6
:101950000B01B90190010C01CA01A0011124FF275C
:10196000591B99F0593F50F4503E68F11A16F04057
:10197000A22F232F342F4427585FF3CF4695379556
:101980002795A795F0405395C9F77EF41F16BA0B1B
:10199000620B730B840BBAF09150A1F0FF0FBB1FC9
:1019A000661F771F881FC2F70EC0BA0F621F731F12
:1019B000841F48F4879577956795B795F7959E3F6F
:1019C00008F0B0CF9395880F08F09927EE0F979500
:1019D000879508950E94D40D08F481E008950E942F
:1019E000030D0C940F0E0E94080E58F00E94010E79
:1019F00040F029F45F3F29F00C94F80D51110C943C
:101A0000430E0C94FE0D0E94200E68F39923B1F34F
:101A1000552391F3951B550BBB27AA276217730714
:101A2000840738F09F5F5F4F220F331F441FAA1FA8
:101A3000A9F335D00E2E3AF0E0E832D09150504064
:101A4000E695001CCAF72BD0FE2F29D0660F771F12
:101A5000881FBB1F261737074807AB07B0E809F0F8
:101A6000BB0B802DBF01FF2793585F4F3AF09E3F7D
:101A7000510578F00C94F80D0C94430E5F3FE4F39D
:101A8000983ED4F3869577956795B795F7959F5FC0
:101A9000C9F7880F911D9695879597F90895E1E00C
:101AA000660F771F881FBB1F621773078407BA076B
:101AB00020F0621B730B840BBA0BEE1F88F7E095C6
:101AC00008950E94680D6894B1110C94430E089516
:101AD0000E94280E88F09F5798F0B92F9927B75188
:101AE000B0F0E1F0660F771F881F991F1AF0BA95C2
:101AF000C9F714C0B13091F00E94420EB1E00895D0
:101B00000C94420E672F782F8827B85F39F0B93FC1
:101B1000CCF3869577956795B395D9F73EF4909574
:101B20008095709561957F4F8F4F9F4F0895E894F2
:101B300009C097FB3EF490958095709561957F4F15
:101B40008F4F9F4F9923A9F0F92F96E9BB279395C3
:101B5000F695879577956795B795F111F8CFFAF4D3
:101B6000BB0F11F460FF1BC06F5F7F4F8F4F9F4F04
:101B700016C0882311F096E911C0772321F09EE862
:101B8000872F762F05C0662371F096E8862F70E0C8
:101B900060E02AF09A95660F771F881FDAF7880FA2
:101BA0009695879597F90895990F0008550FAA0BF8
:101BB000E0E8FEEF16161706E807F907C0F0121660
:101BC0001306E407F50798F0621B730B840B950B63
:101BD00039F40A2661F0232B242B252B21F40895B8
:101BE0000A2609F4A140A6958FEF811D811D089555
:101BF00097F99F6780E870E060E008959FEF80ECC0
:101C0000089500240A941616170618060906089562
:101C100000240A9412161306140605060895092EC8
:101C20000394000C11F4882352F0BB0F40F4BF2B37
:101C300011F460FF04C06F5F7F4F8F4F9F4F089577
:101C400057FD9058440F551F59F05F3F71F047956D
:101C5000880F97FB991F61F09F3F79F08795089552
:101C6000121613061406551FF2CF4695F1DF08C071
:101C7000161617061806991FF1CF8695710561058E
:101C800008940895E894BB2766277727CB0197F936
:101C900008950E94D40D08F48FEF08950E94610EFC
:101CA0000C940F0E0E94010E38F00E94080E20F0D6
:101CB000952311F00C94F80D0C94FE0D11240C9446
:101CC000430E0E94200E70F3959FC1F3950F50E0D4
:101CD000551F629FF001729FBB27F00DB11D639FDE
:101CE000AA27F00DB11DAA1F649F6627B00DA11D84
:101CF000661F829F2227B00DA11D621F739FB00D2A
:101D0000A11D621F839FA00D611D221F749F332799
:101D1000A00D611D231F849F600D211D822F762F32
:101D20006A2F11249F5750409AF0F1F088234AF00F
:101D3000EE0FFF1FBB1F661F771F881F915050407B
:101D4000A9F79E3F510580F00C94F80D0C94430EBA
:101D50005F3FE4F3983ED4F3869577956795B79502
:101D6000F795E7959F5FC1F7FE2B880F911D96951C
:0A1D7000879597F90895F894FFCFC6
:101D7A0090010AD7A33C0000404090010000704146
:101D8A000AD7A33C000040409001000070410AD7E6
:101D9A00A33C000040407561727420696E697469E1
:101DAA00616C697A65640073657474696E6720751D
:101DBA0070206779726F007374617274696E67203C
:061DCA006C6F6F70000059
:040000050080023045
:00000001FF
